{
    "address": "0xf39Fd6e51aad88F6F4ce6aB8827279cffFb92266",
    "abi": [
        {
            "anonymous": false,
            "inputs": [
                {
                    "indexed": true,
                    "internalType": "address",
                    "name": "user",
                    "type": "address"
                },
                {
                    "indexed": false,
                    "internalType": "string",
                    "name": "name",
                    "type": "string"
                },
                {
                    "indexed": false,
                    "internalType": "string",
                    "name": "ipfsCid",
                    "type": "string"
                }
            ],
            "name": "UserRegistered",
            "type": "event"
        },
        {
            "anonymous": false,
            "inputs": [
                {
                    "indexed": true,
                    "internalType": "address",
                    "name": "user",
                    "type": "address"
                }
            ],
            "name": "UserRemoved",
            "type": "event"
        },
        {
            "inputs": [
                {
                    "internalType": "address",
                    "name": "_addr",
                    "type": "address"
                }
            ],
            "name": "getUser",
            "outputs": [
                {
                    "internalType": "string",
                    "name": "",
                    "type": "string"
                },
                {
                    "internalType": "string",
                    "name": "",
                    "type": "string"
                },
                {
                    "internalType": "string",
                    "name": "",
                    "type": "string"
                }
            ],
            "stateMutability": "view",
            "type": "function"
        },
        {
            "inputs": [
                {
                    "internalType": "string",
                    "name": "_name",
                    "type": "string"
                },
                {
                    "internalType": "string",
                    "name": "_email",
                    "type": "string"
                },
                {
                    "internalType": "string",
                    "name": "_ipfsCid",
                    "type": "string"
                }
            ],
            "name": "registerUser",
            "outputs": [],
            "stateMutability": "nonpayable",
            "type": "function"
        },
        {
            "inputs": [],
            "name": "removeUser",
            "outputs": [],
            "stateMutability": "nonpayable",
            "type": "function"
        },
        {
            "inputs": [
                {
                    "internalType": "address",
                    "name": "",
                    "type": "address"
                }
            ],
            "name": "users",
            "outputs": [
                {
                    "internalType": "string",
                    "name": "name",
                    "type": "string"
                },
                {
                    "internalType": "string",
                    "name": "email",
                    "type": "string"
                },
                {
                    "internalType": "string",
                    "name": "ipfsCid",
                    "type": "string"
                },
                {
                    "internalType": "bool",
                    "name": "exists",
                    "type": "bool"
                }
            ],
            "stateMutability": "view",
            "type": "function"
        }
    ],
    "bytecode": "0x6080604052348015600f57600080fd5b50610fff8061001f6000396000f3fe608060405234801561001057600080fd5b506004361061004c5760003560e01c80636f77926b14610051578063a87430ba14610083578063d637dcfa146100b6578063f944f4c7146100d2575b600080fd5b61006b60048036038101906100669190610878565b6100dc565b60405161007a93929190610935565b60405180910390f35b61009d60048036038101906100989190610878565b610360565b6040516100ad949392919061099c565b60405180910390f35b6100d060048036038101906100cb9190610b2b565b610535565b005b6100da610651565b005b606080606060008060008673ffffffffffffffffffffffffffffffffffffffff1673ffffffffffffffffffffffffffffffffffffffff16815260200190815260200160002060405180608001604052908160008201805461013c90610c01565b80601f016020809104026020016040519081016040528092919081815260200182805461016890610c01565b80156101b55780601f1061018a576101008083540402835291602001916101b5565b820191906000526020600020905b81548152906001019060200180831161019857829003601f168201915b505050505081526020016001820180546101ce90610c01565b80601f01602080910402602001604051908101604052809291908181526020018280546101fa90610c01565b80156102475780601f1061021c57610100808354040283529160200191610247565b820191906000526020600020905b81548152906001019060200180831161022a57829003601f168201915b5050505050815260200160028201805461026090610c01565b80601f016020809104026020016040519081016040528092919081815260200182805461028c90610c01565b80156102d95780601f106102ae576101008083540402835291602001916102d9565b820191906000526020600020905b8154815290600101906020018083116102bc57829003601f168201915b505050505081526020016003820160009054906101000a900460ff16151515158152505090508060600151610343576040517f08c379a000000000000000000000000000000000000000000000000000000000815260040161033a90610c7e565b60405180910390fd5b806000015181602001518260400151935093509350509193909250565b600060205280600052604060002060009150905080600001805461038390610c01565b80601f01602080910402602001604051908101604052809291908181526020018280546103af90610c01565b80156103fc5780601f106103d1576101008083540402835291602001916103fc565b820191906000526020600020905b8154815290600101906020018083116103df57829003601f168201915b50505050509080600101805461041190610c01565b80601f016020809104026020016040519081016040528092919081815260200182805461043d90610c01565b801561048a5780601f1061045f5761010080835404028352916020019161048a565b820191906000526020600020905b81548152906001019060200180831161046d57829003601f168201915b50505050509080600201805461049f90610c01565b80601f01602080910402602001604051908101604052809291908181526020018280546104cb90610c01565b80156105185780601f106104ed57610100808354040283529160200191610518565b820191906000526020600020905b8154815290600101906020018083116104fb57829003601f168201915b5050505050908060030160009054906101000a900460ff16905084565b6040518060800160405280848152602001838152602001828152602001600115158152506000803373ffffffffffffffffffffffffffffffffffffffff1673ffffffffffffffffffffffffffffffffffffffff16815260200190815260200160002060008201518160000190816105ac9190610e54565b5060208201518160010190816105c29190610e54565b5060408201518160020190816105d89190610e54565b5060608201518160030160006101000a81548160ff0219169083151502179055509050503373ffffffffffffffffffffffffffffffffffffffff167f92822564bab8864c3a47b34e8d23fbce5c46234eb5da261f94087b995ac0f33b8483604051610644929190610f26565b60405180910390a2505050565b6000803373ffffffffffffffffffffffffffffffffffffffff1673ffffffffffffffffffffffffffffffffffffffff16815260200190815260200160002060030160009054906101000a900460ff166106df576040517f08c379a00000000000000000000000000000000000000000000000000000000081526004016106d690610fa9565b60405180910390fd5b6000803373ffffffffffffffffffffffffffffffffffffffff1673ffffffffffffffffffffffffffffffffffffffff1681526020019081526020016000206000808201600061072e91906107a9565b60018201600061073e91906107a9565b60028201600061074e91906107a9565b6003820160006101000a81549060ff021916905550503373ffffffffffffffffffffffffffffffffffffffff167fe9dce8c992623ce791725b21e857e33248d1f190a25b5168313420eebdaae99d60405160405180910390a2565b5080546107b590610c01565b6000825580601f106107c757506107e6565b601f0160209004906000526020600020908101906107e591906107e9565b5b50565b5b808211156108025760008160009055506001016107ea565b5090565b6000604051905090565b600080fd5b600080fd5b600073ffffffffffffffffffffffffffffffffffffffff82169050919050565b60006108458261081a565b9050919050565b6108558161083a565b811461086057600080fd5b50565b6000813590506108728161084c565b92915050565b60006020828403121561088e5761088d610810565b5b600061089c84828501610863565b91505092915050565b600081519050919050565b600082825260208201905092915050565b60005b838110156108df5780820151818401526020810190506108c4565b60008484015250505050565b6000601f19601f8301169050919050565b6000610907826108a5565b61091181856108b0565b93506109218185602086016108c1565b61092a816108eb565b840191505092915050565b6000606082019050818103600083015261094f81866108fc565b9050818103602083015261096381856108fc565b9050818103604083015261097781846108fc565b9050949350505050565b60008115159050919050565b61099681610981565b82525050565b600060808201905081810360008301526109b681876108fc565b905081810360208301526109ca81866108fc565b905081810360408301526109de81856108fc565b90506109ed606083018461098d565b95945050505050565b600080fd5b600080fd5b7f4e487b7100000000000000000000000000000000000000000000000000000000600052604160045260246000fd5b610a38826108eb565b810181811067ffffffffffffffff82111715610a5757610a56610a00565b5b80604052505050565b6000610a6a610806565b9050610a768282610a2f565b919050565b600067ffffffffffffffff821115610a9657610a95610a00565b5b610a9f826108eb565b9050602081019050919050565b82818337600083830152505050565b6000610ace610ac984610a7b565b610a60565b905082815260208101848484011115610aea57610ae96109fb565b5b610af5848285610aac565b509392505050565b600082601f830112610b1257610b116109f6565b5b8135610b22848260208601610abb565b91505092915050565b600080600060608486031215610b4457610b43610810565b5b600084013567ffffffffffffffff811115610b6257610b61610815565b5b610b6e86828701610afd565b935050602084013567ffffffffffffffff811115610b8f57610b8e610815565b5b610b9b86828701610afd565b925050604084013567ffffffffffffffff811115610bbc57610bbb610815565b5b610bc886828701610afd565b9150509250925092565b7f4e487b7100000000000000000000000000000000000000000000000000000000600052602260045260246000fd5b60006002820490506001821680610c1957607f821691505b602082108103610c2c57610c2b610bd2565b5b50919050565b7f55736572206e6f7420666f756e64000000000000000000000000000000000000600082015250565b6000610c68600e836108b0565b9150610c7382610c32565b602082019050919050565b60006020820190508181036000830152610c9781610c5b565b9050919050565b60008190508160005260206000209050919050565b60006020601f8301049050919050565b600082821b905092915050565b600060088302610d007fffffffffffffffffffffffffffffffffffffffffffffffffffffffffffffffff82610cc3565b610d0a8683610cc3565b95508019841693508086168417925050509392505050565b6000819050919050565b6000819050919050565b6000610d51610d4c610d4784610d22565b610d2c565b610d22565b9050919050565b6000819050919050565b610d6b83610d36565b610d7f610d7782610d58565b848454610cd0565b825550505050565b600090565b610d94610d87565b610d9f818484610d62565b505050565b5b81811015610dc357610db8600082610d8c565b600181019050610da5565b5050565b601f821115610e0857610dd981610c9e565b610de284610cb3565b81016020851015610df1578190505b610e05610dfd85610cb3565b830182610da4565b50505b505050565b600082821c905092915050565b6000610e2b60001984600802610e0d565b1980831691505092915050565b6000610e448383610e1a565b9150826002028217905092915050565b610e5d826108a5565b67ffffffffffffffff811115610e7657610e75610a00565b5b610e808254610c01565b610e8b828285610dc7565b600060209050601f831160018114610ebe5760008415610eac578287015190505b610eb68582610e38565b865550610f1e565b601f198416610ecc86610c9e565b60005b82811015610ef457848901518255600182019150602085019450602081019050610ecf565b86831015610f115784890151610f0d601f891682610e1a565b8355505b6001600288020188555050505b505050505050565b60006040820190508181036000830152610f4081856108fc565b90508181036020830152610f5481846108fc565b90509392505050565b7f4e6f742072656769737465726564000000000000000000000000000000000000600082015250565b6000610f93600e836108b0565b9150610f9e82610f5d565b602082019050919050565b60006020820190508181036000830152610fc281610f86565b905091905056fea26469706673582212207163a2d47ad7ebd901f0744b68738960a5b82ca1961b621cfc08b2decce2883c64736f6c634300081c0033",
    "linkReferences": {},
    "deployedLinkReferences": {}
}